:100000000CC01BC01AC019C018C017C016C015C03C
:1000100014C013C012C011C010C011241FBECFE500
:10002000D2E0DEBFCDBF10E0A0E6B0E001C01D927F
:10003000A336B107E1F702D00FC5E2CFDF93CF932C
:1000400000D00F92CDB7DEB7198281E090E09B839C
:100050008A8380E062E040E040D280E062E041E0FC
:100060004ED38C2F9D2F029661E0A3D080E062E0FA
:100070002C2F3D2F2F5F3F4F422F532F52D489817A
:10008000882319F081E028D1F1CF81E006D1EECFAD
:10009000DF93CF93CDB7DEB728970FB6F894DEBFC6
:1000A0000FBECDBF8A837C836B835E834D8381E0EB
:1000B00089838A81282F30E038872F838F81988524
:1000C0008430910509F442C02F81388525303105EF
:1000D00084F48F8198858230910541F12F81388594
:1000E000233031055CF58F81988581309105B1F021
:1000F00055C02F81388526303105C1F18F81988513
:10010000863091055CF12F81388527303105B1F1BA
:100110008F81988588309105C9F140C0EB81FC81C1
:100120001082ED81FE8187E0808339C0EB81FC8104
:100130001082ED81FE8181E0808331C0EB81FC8102
:100140001082ED81FE8182E0808329C0EB81FC81F9
:100150001082ED81FE8183E0808321C0EB81FC81F0
:100160001082ED81FE8184E0808319C0EB81FC81E7
:100170001082ED81FE8185E0808311C0EB81FC81DE
:100180001082ED81FE8186E0808309C0EB81FC81D5
:100190001082ED81FE8187E0808301C01982898110
:1001A00028960FB6F894DEBF0FBECDBFCF91DF917A
:1001B0000895DF93CF9300D000D0CDB7DEB79B83F7
:1001C0008A836C831982198226C08981882F90E0E6
:1001D000282F392F220F331F8A819B81E82FF92F77
:1001E000E20FF31F8081918121E630E042E650E08A
:1001F000622F732F4DDF8093600080916000882311
:1002000039F08091610090916200692F41E065D1E1
:1002100089818F5F898399818C819817B0F20F90C3
:100220000F900F900F90CF91DF910895DF93CF93B0
:1002300000D0CDB7DEB78A8321E630E042E650E059
:100240008A81622F732F24DF809360008091600089
:100250008823F1F08091610090916200692F2C2F2A
:100260003D2F2F5F3F4F422F532F5BD38981882330
:1002700041F08091610090916200692F40E03FD28F
:1002800007C08091610090916200692F41E037D2F0
:100290000F900F90CF91DF910895DF93CF930F923E
:1002A000CDB7DEB7898321E630E042E650E08981B0
:1002B000622F732FEDDE80936000809160008823B1
:1002C00039F08091610090916200692F41E017D26E
:1002D0000F90CF91DF910895DF93CF930F92CDB719
:1002E000DEB7898321E630E042E650E08981622F63
:1002F000732FCEDE8093600080916000882339F0F8
:100300008091610090916200692F40E0F8D10F90D8
:10031000CF91DF910895DF93CF9300D000D00F925B
:10032000CDB7DEB78A836B8319828A81282F30E0AC
:100330003D832C838C819D8181309105D1F02C816E
:100340003D81223031052CF48C819D81009761F034
:100350001FC02C813D812230310581F08C819D812F
:100360008330910581F014C0EAE3F0E08B81808353
:1003700011C0E7E3F0E08B8180830CC0E4E3F0E0A0
:100380008B81808307C0E1E3F0E08B81808302C032
:1003900081E0898389810F900F900F900F900F90CB
:1003A000CF91DF910895DF93CF9300D000D00F92CB
:1003B000CDB7DEB78A836B8319828A81282F30E01C
:1003C0003D832C838C819D8181309105D1F02C81DE
:1003D0003D81223031052CF48C819D81009761F0A4
:1003E0001FC02C813D812230310581F08C819D819F
:1003F0008330910581F014C0EBE3F0E08B818083C2
:1004000011C0E8E3F0E08B8180830CC0E5E3F0E00D
:100410008B81808307C0E2E3F0E08B81808302C0A0
:1004200081E0898389810F900F900F900F900F903A
:10043000CF91DF910895DF93CF9300D000D000D00B
:10044000CDB7DEB78A837C836B8319828A81282F9C
:1004500030E03E832D838D819E8181309105E1F0D6
:100460002D813E81223031052CF48D819E810097B3
:1004700061F027C02D813E8122303105A1F08D81B0
:100480009E8183309105B1F01CC0E9E3F0E08081EA
:10049000EB81FC81808317C0E6E3F0E08081EB8193
:1004A000FC81808310C0E3E3F0E08081EB81FC817C
:1004B000808309C0E0E3F0E08081EB81FC818083F0
:1004C00002C081E08983898126960FB6F894DEBF49
:1004D0000FBECDBFCF91DF910895DF93CF93CDB7FE
:1004E000DEB728970FB6F894DEBF0FBECDBF8A8364
:1004F0006B834C8319828B81883008F0F4C08C8127
:10050000882309F077C08A81282F30E038872F832D
:100510008F8198858130910559F12F81388522305E
:1005200031052CF48F819885009769F060C02F8188
:1005300038852230310589F18F8198858330910586
:1005400009F440C054C0AAE3B0E0EAE3F0E08081DF
:10055000482F8B81282F30E081E090E0022E02C0EE
:10056000880F991F0A94E2F7809584238C93BDC06D
:10057000A7E3B0E0E7E3F0E08081482F8B81282FEC
:1005800030E081E090E0022E02C0880F991F0A94AB
:10059000E2F7809584238C93A8C0A4E3B0E0E4E361
:1005A000F0E08081482F8B81282F30E081E090E0BF
:1005B000022E02C0880F991F0A94E2F780958423C7
:1005C0008C9393C0A1E3B0E0E1E3F0E08081482F99
:1005D0008B81282F30E081E090E0022E02C0880F4E
:1005E000991F0A94E2F7809584238C937EC081E062
:1005F00089837BC08C81813009F072C08A81282F69
:1006000030E03E832D838D819E818130910549F1BB
:100610002D813E81223031052CF48D819E81009701
:1006200061F05BC02D813E812230310571F18D81F9
:100630009E8183309105E9F150C0AAE3B0E0EAE37E
:10064000F0E08081482F8B81282F30E081E090E01E
:10065000022E02C0880F991F0A94E2F7842B8C9314
:1006600044C0A7E3B0E0E7E3F0E08081482F8B814E
:10067000282F30E081E090E0022E02C0880F991F01
:100680000A94E2F7842B8C9330C0A4E3B0E0E4E357
:10069000F0E08081482F8B81282F30E081E090E0CE
:1006A000022E02C0880F991F0A94E2F7842B8C93C4
:1006B0001CC0A1E3B0E0E1E3F0E08081482F8B8132
:1006C000282F30E081E090E0022E02C0880F991FB1
:1006D0000A94E2F7842B8C9308C081E0898305C0DB
:1006E00081E0898302C081E08983898128960FB6E1
:1006F000F894DEBF0FBECDBFCF91DF910895DF9399
:10070000CF93CDB7DEB728970FB6F894DEBF0FBEF4
:10071000CDBF8A836B834C8319828B81883008F02C
:10072000F4C08C81813009F072C08A81282F30E0BA
:1007300038872F838F8198858130910549F12F81EA
:100740003885223031052CF48F819885009761F02F
:100750005BC02F8138852230310571F18F819885FA
:1007600083309105E9F150C0ABE3B0E0EBE3F0E09A
:100770008081482F8B81282F30E081E090E0022E8D
:1007800002C0880F991F0A94E2F7842B8C93BFC094
:10079000A8E3B0E0E8E3F0E08081482F8B81282FC8
:1007A00030E081E090E0022E02C0880F991F0A9489
:1007B000E2F7842B8C93ABC0A5E3B0E0E5E3F0E077
:1007C0008081482F8B81282F30E081E090E0022E3D
:1007D00002C0880F991F0A94E2F7842B8C9397C06C
:1007E000A2E3B0E0E2E3F0E08081482F8B81282F84
:1007F00030E081E090E0022E02C0880F991F0A9439
:10080000E2F7842B8C9383C081E0898380C08C8144
:10081000882309F077C08A81282F30E03E832D831A
:100820008D819E818130910559F12D813E8122304B
:1008300031052CF48D819E81009769F060C02D8177
:100840003E812230310589F18D819E818330910571
:1008500009F440C054C0ABE3B0E0EBE3F0E08081CA
:10086000482F8B81282F30E081E090E0022E02C0DB
:10087000880F991F0A94E2F7809584238C9347C0D0
:10088000A8E3B0E0E8E3F0E08081482F8B81282FD7
:1008900030E081E090E0022E02C0880F991F0A9498
:1008A000E2F7809584238C9332C0A5E3B0E0E5E3C2
:1008B000F0E08081482F8B81282F30E081E090E0AC
:1008C000022E02C0880F991F0A94E2F780958423B4
:1008D0008C931DC0A2E3B0E0E2E3F0E08081482FFA
:1008E0008B81282F30E081E090E0022E02C0880F3B
:1008F000991F0A94E2F7809584238C9308C081E0C5
:10090000898305C081E0898302C081E08983898170
:1009100028960FB6F894DEBF0FBECDBFCF91DF9102
:100920000895DF93CF93CDB7DEB727970FB6F8942E
:10093000DEBF0FBECDBF8A836B835D834C8319827C
:100940008B81883008F07CC08A81282F30E03F837B
:100950002E834E815F814130510569F18E819F81E7
:100960008230910534F42E813F812115310569F0E3
:1009700064C04E815F814230510599F18E819F8123
:100980008330910509F443C058C0E9E3F0E0808169
:10099000282F30E08B81882F90E0422F532F02C008
:1009A000559547958A95E2F7842F952F8170EC81B4
:1009B000FD81808347C0E6E3F0E08081282F30E0AE
:1009C0008B81882F90E0422F532F02C05595479579
:1009D0008A95E2F7842F952F8170EC81FD818083C9
:1009E00031C0E3E3F0E08081282F30E08B81882F55
:1009F00090E0422F532F02C0559547958A95E2F714
:100A0000842F952F8170EC81FD8180831BC0E0E3F2
:100A1000F0E08081282F30E08B81882F90E0422FFA
:100A2000532F02C0559547958A95E2F7842F952F4D
:100A30008170EC81FD81808305C081E0898302C0E3
:100A400081E08983898127960FB6F894DEBF0FBEB7
:0C0A5000CDBFCF91DF910895F894FFCF47
:00000001FF
